:020000040800F2
:1000000048040020D5000008310A00082F0A000823
:1000100000000000000000000000000000000000E0
:100020000000000000000000000000007B0A000843
:100030000000000000000000790A00087D0A0008A6
:10004000E7000008E7000008E7000008E7000008F4
:10005000E7000008E7000008E7000008E7000008E4
:10006000E7000008E7000008E7000008E7000008D4
:10007000E7000008E7000008E7000008E7000008C4
:10008000E7000008E7000008E7000008E7000008B4
:10009000E7000008E7000008E7000008E7000008A4
:1000A000E7000008E7000008E7000008E700000894
:1000B000E7000008E7000008E7000008E700000884
:1000C0000348854600F03CF8004800471D0D000835
:1000D000480400200448804704480047FEE7FEE744
:1000E000FEE7FEE7FEE7FEE7C50A0008C1000008DC
:1000F00030B50B46014600202022012409E00D46C0
:10010000D5409D4205D31D469540491B2546954047
:1001100040191546521E002DF1DC30BDD2B201E06F
:100120000270401C491EFBD270470022F6E710B552
:1001300013460A4604461946FFF7F0FF204610BD55
:10014000064C0125064E05E0E36807CC2B430C3C2A
:1001500098471034B442F7D3FFF7B6FFB00F00084A
:10016000D00F000831B500F0C3F8009C0546601CB4
:1001700000D0641C00F0BCF8401BA042FAD338BD8C
:10018000F8B5002393E0224601249C40A446224077
:100190007ED04C68022C01D0122C0CD1DC08A400BB
:1001A00027183C6A5D07ED0E0F26AE40B4430E697A
:1001B000AE4026433E6205685E000324B4400F79DA
:1001C000A543BF07BF0FB7402F4307604D68012D00
:1001D00005D0022D03D0112D01D0122D0ED185682E
:1001E000CF68A543B7402F43876047686546AF4354
:1001F0000D79ED06ED0F9D403D434560C568A54373
:100200008C68B4402C43C4604C68E4004ED52B4C41
:10021000A56901263543A561A4699D083440009471
:10022000274CAD002F19BC689D072E0F0F25B54038
:10023000AC430925ED06A84201D1002514E0214D6B
:10024000A84201D101250FE01F4DA84201D102258E
:100250000AE01E4DA84201D1032505E01C4DA8422D
:1002600001D1042500E00525B5402543BD60194CAA
:1002700025684E689543F60300D5154325606568EB
:100280004E689543B60300D515436560A56800E048
:100290000CE04E689543F60200D51543A560E5686D
:1002A0004E689543B60200D51543E5605B1C0A68AD
:1002B0001446DA4000D066E7F8BD000000100240A6
:1002C000000001400004004800080048000C0048FD
:1002D00000100048000401400069084000D00120DF
:1002E0007047002A01D08161704781627047000029
:1002F00001480068704700000800002002480168BB
:10030000491C0160704700000800002010B5064835
:100310000168102211430160002000F007F800F08E
:1003200017F8002010BD00000020024010B5044660
:1003300000F0D0F87D21C900FFF7DAFE00F000FBE5
:1003400000222146501E00F017F8002010BD0000CA
:1003500008B5084881690122114381618169114012
:100360000091C26901040A43C261C069084000905B
:1003700008BD00000010024010B500F05BFB10BD8E
:10038000F8B505464E480E460068C007C00FB0429B
:100390000AD24B48016849084900314301600068AE
:1003A000C007C00FB04270D12878464C800705D5F1
:1003B0006068F0218843A968084360602878C00716
:1003C00053D06868012817D0022818D0032819D004
:1003D00021688907002958DA616889088900014382
:1003E0006160FFF785FF69680746012913D002297C
:1003F0001DD0032927D034E021688903EAE721686A
:100400008901E7E7616BC903E4E7FFF771FFC11BEF
:100410002D48814223D860680007800F0128F4D15D
:1004200023E0FFF765FFC11B2748814217D86068AA
:100430000007800F0228F4D117E0FFF759FFC11B16
:10044000214881420BD860680007800F0328F4D14F
:100450000BE0FFF74DFFC11B1B48814201D9032070
:10046000F8BD60680007800FF3D115480168C9071F
:10047000C90FB1420BD901684908490031430160F5
:100480000068C007C00FB04201D00120F8BD287835
:10049000400706D56068072109028843E9680843D8
:1004A000606000F01DF86168084A0906090F515C98
:1004B000C840074908600020FFF738FF0020F8BD5A
:1004C000002002400010024088130000A00F000826
:1004D0000C00002001480068704700000C0000205C
:1004E00030B516A30FCB89B06C460FC417A30FCB42
:1004F0000FC41A494A680C20144604401848042CBA
:1005000005D0184B082C04D00C2C00D1184609B08B
:1005100030BD9402240F6D462C5DC96A04AD0907F5
:10052000090FD203695C920F022A02D0032A00D17C
:100530001846FFF7DDFD6043E9E70000020304050C
:10054000060708090A0B0C0D0E0F10100102030418
:1005500005060708090A0B0C0D0E0F1000100240CB
:1005600000127A00006CDC02FEB504460078F04E02
:10057000F04DC00748D068680007800F01281FD0E1
:1005800068680007800F022804D16868C003800FE4
:10059000022815D06168012919D0012080040029A2
:1005A00001D0052917D02968B14329602968814302
:1005B0002960606800281BD0FFF79AFE074613E009
:1005C0002868800320D56068002876D01CE0286861
:1005D00030432860EDE7296801432960F7E7FFF71A
:1005E00087FEC01B642869D828688003F7D50BE014
:1005F000FFF77EFE074604E0FFF77AFEC01B642883
:10060000F1D828688003F7D4207880073ED5686841
:100610000007800F14D068680007800F022804D1FB
:100620006868C003800F01280AD0E06800282868A5
:100630001DD0012108432860FFF75AFE07460BE052
:10064000286880070BD5E068012836D107E0FFF75E
:100650004FFEC01B0228C6D828688007F7D5286837
:10066000F82188432169C900084328600EE040084A
:1006700040002860FFF73CFE074604E0FFF738FE25
:10068000C01B0228AFD828688007F7D4207800075D
:1006900024D5E0690028686A11D001210843686206
:1006A000FFF726FE074604E0FFF722FEC01B0228E4
:1006B00099D8686A8007F7D510E036E1D1E04008A4
:1006C00040006862FFF714FE074604E0FFF710FEE3
:1006D000C01B022887D8686A8007F7D420780427CF
:1006E0004007002861DA00200190E869C00008D4C2
:1006F000E969B8060143E961E96901400120009117
:1007000001908D480168C90511D401688215114313
:100710000160FFF7EDFD009005E0FFF7E9FD0099AE
:10072000401A642897D884480068C005F5D5A068A9
:1007300001280AD0002801D0052811D0286A4008D5
:1007400040002862286AB84302E0286A0121084371
:100750002862A068002812D0FFF7CAFD00900AE0C6
:10076000286A38432862F0E7FFF7C2FD0099411A72
:100770007248814275D8286A8007F5D50DE0FFF7E9
:10078000B7FD009006E0FFF7B3FD0099411A6B48F2
:10079000814266D8286A8007F5D40198002804D0E1
:1007A000E969012000078143E9612078C00635D559
:1007B000606901280CD0401D686B24D03843686301
:1007C000686B400840006863FFF792FD074622E02F
:1007D000686B38436863686B012108436863FFF7FF
:1007E00087FD074604E0FFF783FDC01B022838D8C9
:1007F000686B8007F7D5686BF8218843A169C90049
:10080000084368630AE0B8436863F4E7FFF770FDE4
:10081000C01B022825D8686B8007F7D42078800693
:1008200037D568680007800F032813D06868000771
:10083000800F022804D16868C003800F032809D004
:10084000206A0028686B16D030436863FFF750FDBC
:1008500006460CE0686BC0031BD5206A012864D1F2
:1008600017E05BE0FFF744FD801B022856D8686B59
:10087000C003F7D50DE0B0436863FFF739FD0646C6
:1008800004E0FFF735FD801B022847D8686BC003E2
:10089000F7D4606A002846D069680907890F0229E1
:1008A00043D0012636060228286805D0B0432860C8
:1008B000FFF71EFD044633E0B0432860FFF718FD44
:1008C000074604E0FFF714FDC01B022826D828685D
:1008D0008001F7D4E86A216B000900010843E8624F
:1008E000A16AE06A084369687B22D2039143084306
:1008F0006860286830432860FFF7FAFC044604E08B
:10090000FFF7F6FC001B022808D828688001F7D5FD
:1009100009E0FFF7EDFC001B022801D90320FEBD12
:1009200028688001F5D40020FEBD0120FEBD000036
:100930000000010000100240007000408813000019
:10094000094910B5401E884201D9012010BD074C4D
:1009500060610321081F00F06DF80020A0610720EE
:100960002061002010BD0000FFFFFF0000E000E05C
:100970000FB4F0B585B06846048E01250026032724
:100980006946F0C169460A98FFF7FAFB6846408E4F
:10099000019600900397029569460B98FFF7F0FBCC
:1009A000012221460A98FFF79CFC3220FFF7DAFB70
:1009B000002221460B98FFF794FC05B0F0BC08BC60
:1009C00004B018470FB4F8B568460024478C068C6D
:1009D0002546012231460698FFF783FC640039461C
:1009E0000798FFF779FC002800D0641C00223146EC
:1009F0000698FFF776FC6D1CEDB2182DE9D30025A3
:100A00000AE0012231460698FFF76BFC00223146CE
:100A10000698FFF766FC6D1C0A98A842F1DC204698
:100A2000F8BC012108BCC905484004B01847FEE7DE
:100A3000704700008307FF22DB0E9A408907090EEA
:100A4000994000280BDA0007000F0838830808488F
:100A50009B001818C36993430B43C3617047830815
:100A600004489B001B18186890430843186070479F
:100A700000ED00E000E400E07047704710B5FFF7BC
:100A80003DFC10BD10B592B034216846FFF74DFB18
:100A900000240F94022000900D9401200E940390E6
:100AA00010200994049010946846FFF75DFD07201C
:100AB0000D900E940F94002110940DA8FFF760FC88
:100AC00012B010BD12480168012211430160416853
:100AD000104A1140416001680F4A114001600168ED
:100AE000012292049143016041683F221204914324
:100AF0004160C16A09090901C162016B074A1140DD
:100B00000163416B490849004163002181607047DE
:100B1000001002400CB8FF08FFFFF6FE2CFEFCFFA1
:100B20000FB410B504A9074B02AA039800F01CF8F3
:100B3000044602A9002000F0BFF8204610BC08BC03
:100B400004B01847B90C000802E008C8121F08C119
:100B5000002AFAD170477047002001E001C1121F3E
:100B6000002AFBD170470000FFB58DB00446002578
:100B700006E025280AD0109A0F999047641C6D1C36
:100B800020780028F5D1284611B0F0BD00270121BA
:100B9000484A009700E00743641C23780846203B3E
:100BA00098401042F7D120782E2817D1042007430F
:100BB0006078641C2A280CD10E98641C02C800912D
:100BC0000E900BE000990A22514330394018641C02
:100BD00000902078014630390929F3D9207800287F
:100BE000D1D0642808D0692806D075281ED0109A64
:100BF0000F9990476D1C5BE00A200E99019001C986
:100C00000E91002802DA40422D2102E0390504D578
:100C10002B216A461172012103E0F90704D020213B
:100C2000F7E70BAE0B910DE00021FAE70A200E99D1
:100C3000019001C90E91F7E70199FFF759FA303198
:100C4000761E31700028F7D103A8801B2030019058
:100C5000780701D5009801E00120009001998842B1
:100C600001DD401A00E000200027009006E002A805
:100C7000109AC05D0F9990476D1C7F1C0B9887429E
:100C8000F5DB04E0109A30200F9990476D1C009915
:100C9000481E00900029F5DC05E03078109A761C9B
:100CA0000F9990476D1C0199481E01900029F4DCB2
:100CB000641C65E7092801000A68531C0B6010706A
:100CC000704700000348816901225203114381618A
:100CD00070470000000800480348816A012252035F
:100CE00011438162704700000008004808B50920E0
:100CF000094AC0061060022150601181042151810F
:100D000000230121D36011610091114620398A6AC4
:100D10000146FFF72DFE08BD3000002008B5FFF7A3
:100D2000F5FAFFF7AFFE00F0F9F800F021F900F056
:100D300031F8FFF7DBFF00F075F808A000F0BEF80F
:100D40000C48006B00900B4820300FC8FFF73AFEAC
:100D50000949486000F0A4F8FEE7000052756E6E85
:100D6000696E672077656967687420746573742E8F
:100D70002E2E0000100000200000002000B500F022
:100D8000B1F8FFF79FFF00BD00B500F0B9F8FFF71D
:100D900099FF00BD10B5214841690122D2041143D9
:100DA00041611F480168FC22914301600268C10350
:100DB0000A43026043684A13134043608368032474
:100DC000A406A3438360C3680B43C360816A1143D5
:100DD0008162026841040A43026043688A13134037
:100DE00043608368A400A3438360C3680B43C3606C
:100DF0008169114381610268C1040A43026043684A
:100E0000CA131340436083688B438360C3680B43FA
:100E1000C360816A1143816210BD0000001002406E
:100E20000008004810B50DA000F048F8FFF7ACFF2F
:100E30007D24E4002046FFF795F9FFF74DFF20469B
:100E4000FFF790F9FFF79AFF2046FFF78BF9FFF7BE
:100E500043FF08A000F032F810BD000052756E6E1E
:100E6000696E67206D6F746F7220746573742E2EB7
:100E70002E0000004D6F746F7220746573742063D0
:100E80006F6D706C6574652E000000000349CA69BF
:100E90001206FCD501492031088170470048004006
:100EA00010B5024603A10448FFF73AFE024800F0DD
:100EB00005F810BD256400001000002030B5044680
:100EC00000230A20FFF7E2FF0D20FFF7DFFF7D255B
:100ED000ED00E05C002804D0FFF7D8FF5B1CAB42BC
:100EE000F7DD30BD0548816A01229203114381621A
:100EF0008169520011438161704700000008004879
:100F0000054881690122920311438161816A52007F
:100F100011438162704700000008004810B5114875
:100F200041690122D204114341610F490A68052336
:100F30005B021A430A600A6A11231B041A430A62FD
:100F4000C169012292041143C161FFF7C3FAE12193
:100F50004902FFF7CDF80549C86008680D22104323
:100F6000086010BD00100240000800480048004022
:100F70000A48416901225204114341610920C00617
:100F8000016849084900016081680122D243114388
:100F90008160C16802221143C160704700100240A5
:100FA0000000000000000000010203040607080919
:100FB000D00F00080000002010000000480B0008BF
:100FC000E00F00081000002038040000580B000853
:100FD00000000000000000000000000000127A0085
:04000005080000C12E
:00000001FF
